:100000000C94B4000C94D1000C94D1000C94D10049
:100010000C94D0020C94D1000C94D1000C94D1001B
:100020000C94D1000C94D1000C94D1000C94D1000C
:100030000C94D1000C94D1000C94BB010C94D10011
:100040000C94D1000C94D1000C94D1000C94D100EC
:100050000C94D1000C94D1000C94D1000C94D100DC
:100060000C94D1000C94D100005EBCE2613FDD83B2
:10007000C29C7E20A3FD1F419DC3217FFCA2401E88
:100080005F01E3BD3E6082DC237D9FC1421CFEA078
:10009000E1BF5D0380DE3C62BEE0025CDF81633D68
:1000A0007C22C09E1D43A1FF4618FAA427799BC558
:1000B00084DA3866E5BB5907DB856739BAE4065848
:1000C0001947A5FB7826C49A653BD987045AB8E638
:1000D000A7F91B45C6987A24F8A6441A99C7257B28
:1000E0003A6486D85B05E7B98CD2306EEDB3510F18
:1000F0004E10F2AC2F7193CD114FADF3702ECC9208
:10010000D38D6F31B2EC0E50AFF1134DCE90722CF7
:100110006D33D18F0C52B0EE326C8ED0530DEFB1E7
:10012000F0AE4C1291CF2D73CA947628ABF51749D7
:100130000856B4EA6937D58B5709EBB536688AD4C7
:1001400095CB2977F4AA4816E9B7550B88D6346AB7
:100150002B7597C94A14F6A8742AC896154BA9F7A7
:10016000B6E80A54D7896B3511241FBECFEFD4E00F
:10017000DEBFCDBF11E0A0E0B1E0E8E8F4E102C0ED
:1001800005900D92AC38B107D9F711E0ACE8B1E0B9
:1001900001C01D92A93BB107E1F70E94D3000C9466
:1001A000420A0C9400000F931F93DF93CF93CDB7B7
:1001B000DEB72A970FB6F894DEBF0FBECDBF0E9400
:1001C0008D030E9426040E946E010E9460020E941C
:1001D0009A078E010F5F1F4FC8010E941F04C801BC
:1001E0000E94F803882321F40E94CA02882349F060
:1001F0008E010F5F1F4FC8010E948404C8010E9436
:100200001404CE0101960E946C069C8184E6989F9E
:10021000C00111240E9499030E9484060E94AC032D
:10022000FBCF282F469FC001112466EF79E00E9482
:100230007B09621708F4622F862F0895689FC0011A
:100240001124642F70E00E947B09CB016AE070E00A
:100250000E947B09862F0895AF92BF92CF92DF92C2
:10026000EF92FF920F931F93E62EA42EFF2400E03F
:1002700010E09C0140E050E0C801B7010E945C0919
:10028000BB24CC24DD24A60195010E94A209C9014A
:100290001F910F91FF90EF90DF90CF90BF90AF90A4
:1002A0000895EF92FF920F931F93E62E90E0A0E047
:1002B000B0E0BC01CD0128EE33E040E050E00E9408
:1002C0005C09FF2400E010E0A80197010E94A20948
:1002D000C9011F910F91FF90EF90089587B1886336
:1002E00087B98AB18FEF8AB984B5826084BDEEE6A2
:1002F000F0E080818260808378948DE787BD85B54A
:10030000836085BD0895DC0193E021C08E2F80536A
:100310008A3020F4F0E0ED52FF4F11C08E2F81544F
:100320008A3120F4F0E0E453FF4F09C08E2F81564C
:100330008A3110F080E004C0F0E0E455FF4F808186
:100340009150E92FF0E0EF56FE4F80831196EC912B
:10035000EE2311F09923D1F608958FB7F8942091E8
:100360008C0130918D0140918E0150918F018FBF92
:10037000B901CA0108951F920F920FB60F9211246E
:100380002F938F939F93AF93BF93EF93FF9380919E
:100390008C0190918D01A0918E01B0918F010196F9
:1003A000A11DB11D80938C0190938D01A0938E01AE
:1003B000B0938F0188B1886388B9E0919001F0E033
:1003C000EF56FE4F80818BB928B190919001E92FB3
:1003D000F0E0E050FF4F80818095822388B99F5FD5
:1003E0009093900180919001833011F410929001CC
:1003F000FF91EF91BF91AF919F918F912F910F90AE
:100400000FBE0F901F901895CF92DF92FF920F931F
:100410001F93DF93CF9300D000D0CDB7DEB7F62E79
:1004200023E0883E920708F03FC08E010F5F1F4F08
:10043000B8014AE050E00E94DF09F8010190002075
:10044000E9F731976E2F601B83E991E0C62EDD241A
:10045000ADEFBFEFCA0EDB1EC00ED11E23E030E0B1
:100460004F2D50E04F5F5F4F621710F4E0E006C081
:10047000D601EC91F0E0ED52FF4FE081DC01EC930E
:10048000FF2029F04217530711F4E06202C0EF7D0C
:10049000DC01EC930197215030400894C11CD11C21
:1004A000B1E080399B0701F70F900F900F900F90EC
:1004B000CF91DF911F910F91FF90DF90CF90089522
:1004C00087B1887F87B9E8E6F0E080818260808329
:1004D000ECE6F0E080818560808386B180939401B2
:1004E00078940895809397016093980110929901F0
:1004F00020919501309196018091980190E08217AA
:10050000930724F480919801282F30E0809197017F
:1005100090E02817390724F480919701282F30E0C4
:100520003093960120939501089580919701089545
:100530008091980108951092990120919501309130
:100540009601C90108958091990108959C018091B7
:10055000980190E08217930724F480919801282F46
:1005600030E08091970190E02817390724F48091BA
:100570009701282F30E0309396012093950108953C
:1005800080919A01823011F080E0089510929A01D2
:1005900081E0089586B1869586958095817008954D
:1005A0001F920F920FB60F9211241F932F933F9318
:1005B0004F935F936F937F938F939F93AF93BF936B
:1005C000EF93FF93F89416B1809194018127482FFF
:1005D00080FF2AC010FF28C011FF10C02091950194
:1005E000309196018091970190E082179307CCF4A7
:1005F000809195019091960101970FC020919501EE
:10060000309196018091980190E0281739074CF4B9
:100610008091950190919601019690939601809317
:10062000950181E08093990142FF31C080919A0148
:10063000882319F0813059F510C012FD28C081E0DF
:1006400080939A010E94AD0160939B0170939C017D
:1006500080939D0190939E011AC00E94AD0120914C
:100660009B0130919C0140919D0150919E01621B24
:10067000730B6233710518F410929A0108C0685E1A
:10068000734010F482E001C083E080939A011093DC
:1006900094017894FF91EF91BF91AF919F918F91C9
:1006A0007F916F915F914F913F912F911F910F908B
:1006B0000FBE0F901F901895EF92FF920F931F930C
:1006C0000E94AD017B018C018FB7F89420919B01B2
:1006D00030919C0140919D0150919E018FBFF894F3
:1006E00080919A01833069F080919A01813071F490
:1006F00028513C4F4F4F5F4F2E153F054007510784
:1007000028F410929A01789481E002C0789480E0F5
:100710001F910F91FF90EF900895229A0895909362
:10072000A2018093A101089580919F019091A00161
:1007300008959093A00180939F011092A2011092BE
:10074000A1010E94AD016093A3017093A401809365
:10075000A5019093A6010895EF92FF920F931F9326
:100760000E94AD017B018C0180919F019091A001BD
:10077000A0E0B0E02091A3013091A4014091A50137
:100780005091A601820F931FA41FB51F8E159F05C0
:10079000A007B10740F4E092A301F092A4010093F6
:1007A000A5011093A6018091A1019091A201A0E062
:1007B000B0E02091A3013091A4014091A501509196
:1007C000A601820F931FA41FB51FE816F9060A079A
:1007D0001B0728F42A9A81E00E942A0404C02A9860
:1007E00081E00E942F041F910F91FF90EF900895D8
:1007F000FC018081813041F48181823029F4828141
:100800008A3211F480E0089591E0908382E0818340
:100810008AE0838394838CE3858316821782108613
:1008200081E008958AE20895FC018AE28283CF0183
:1008300060E070E04AE050E00E94100A089560E035
:1008400070E042E050E00E94000A089584B18362A3
:1008500084B9089595B18372892B85B9089595B1AE
:1008600083728095892385B9089595B1837289270C
:1008700085B9089581E00895EF92FF921F93CF9379
:10088000DF93182F7B01EA0180E061E00E94720291
:1008900080E090E0112311F081E090E00E94A60238
:1008A00011E00E94A302882311F4112349F00E9451
:1008B0009B02892B11F0C70101C0CE010E94830168
:1008C0000E94C002882319F00E949B0206C00E9469
:1008D0005C0310E0882329F380E0DF91CF911F9122
:1008E000FF90EF9008950F931F938C01FC01818579
:1008F00067E271E04BE251E00E943C04F80181871D
:1009000080E01F910F910895FF920F931F93CF9353
:10091000DF93EC0110E000E036E0F32E113069F0D7
:10092000113018F01230D1F70FC080E068E00E945B
:100930007202802F90E00E94A6020F9DC001112438
:100940008D5B9E4F0E9483010E94A302882311F4B5
:1009500012E004C00E949B02082F11E00E94C00216
:10096000882399F0802F90E0FC01EE0FFF1FE80F25
:10097000F91FEE0FFF1FED5BFE4F0480F581E02DA8
:10098000CE010995882321F410E00E945C03C6CFB4
:10099000DF91CF911F910F91FF900895BF92CF9259
:1009A000DF92EF92FF920F931F93CF93DF93D82E96
:1009B000C92E862FE42EB22EE801642F0E94720207
:1009C0008D2D9C2D0E94A60200E010E0FF24F394E0
:1009D0000E94A302882311F4FF20A1F00E949B0231
:1009E0008C01209719F06E2DFE01099523E0883EB9
:1009F000920728F087E291E00E94830103C06B2DEB
:100A00000E9404020E94C002882349F40E945C03F1
:100A1000FF248823E9F28D2D9C2D9C018901C801BA
:100A2000DF91CF911F910F91FF90EF90DF90CF90CA
:100A3000BF900895CF93DF93EC0180E06FE271E007
:100A400043E351E00E943C04882321F01982CE0147
:100A50000E94F80380E0DF91CF910895EF92FF921A
:100A60000F931F937C01FC01108583816581448174
:100A70000E941E01482F812F90E060E021E001E5F7
:100A800011E00E94CE04F701808780E01F910F9152
:100A9000FF90EF900895EF92FF920F931F937C01C8
:100AA000FC0117818381658144810E941E01482FCA
:100AB000812F90E060E021E001E511E00E94CE048A
:100AC000F701878380E01F910F91FF90EF900895C9
:100AD000EF92FF920F931F937C01FC01168183819B
:100AE000658144810E941E01482F812F90E060E0C3
:100AF00021E001E511E00E94CE04F701868380E049
:100B00001F910F91FF90EF900895EF92FF920F9336
:100B10001F937C01FC01858190E061E04FEF20E0B4
:100B200000E010E00E94CE04482FF7018583848105
:100B300063810E941101F701848380E01F910F916E
:100B4000FF90EF900895EF92FF920F931F937C0117
:100B5000FC01148181E0638145810E941101682FAD
:100B6000812F90E04FEF20E000E010E00E94CE04E3
:100B7000F701848380E01F910F91FF90EF9008951B
:100B8000EF92FF920F931F937C01FC01838190E011
:100B900061E04FEF21E000E010E00E94CE04682FFA
:100BA000F7018383848145810E941101F7018483C9
:100BB00080E01F910F91FF90EF900895E091A801C0
:100BC000F091A9018381658144810E941E01682FF3
:100BD00080E00E94720282E00E942F04109279014C
:100BE00008950F931F93182F9091A701892F82507A
:100BF000833038F4E091A801F091A901E90FF11DCB
:100C000014830E949802082F112319F487E391E0BE
:100C100004C0181729F48BE391E00E94830107C0F8
:100C2000812F602F0E94510161E00E9404020E9406
:100C30009403612F402F0E942C010E948F031F916B
:100C40000F9108952091A8013091A901813061F0A0
:100C5000813010F08530A0F01092A70180E00E9452
:100C6000F10580E090E009C08093A7010E949802FE
:100C70000E94F1050E94980290E00E94A602089549
:100C8000F901E80FF11D9481992379F08093A70170
:100C9000892F0E94F105E091A801F091A9018091AE
:100CA000A701E80FF11D8481E7CF8F5FCFCFE091DF
:100CB000A801F091A9018185882311F40E942206E0
:100CC0000E949B02682F0E94720282E00E942A0406
:100CD00081E0809379010895FC019093A9018093AC
:100CE000A8018381658144810E941E01682F80E0F4
:100CF0000E94720280E090E00E94A60280E00E94C2
:100D000022060E94570608950E94C30820E88030FA
:100D1000920729F48FE391E00E948301089564E62D
:100D200070E00E948F09CB0160E00E9404020895E8
:100D30008330910528F0880F991F04970197F1F7E8
:100D40000895F894239878948DE78150D9F01B9BEF
:100D5000FCCFF8942B98239A78948CEB93E001972E
:100D6000F1F7F894239888E890E00197F1F783B1C0
:100D7000869586958695809581707894E0E3F3E07A
:100D80003197F1F7089580FF0CC0F8942B98239ABF
:100D900080E190E00197F1F72B9A78948AE690E051
:100DA0000BC0F8942B98239A8EE790E00197F1F707
:100DB0002B9A789486E090E00197F1F70895F894E3
:100DC000239A2B9882E090E00197F1F7239880E135
:100DD00090E00197F1F783B17894E6E6F0E031977F
:100DE000F1F790E033E0969587953A95E1F78170B9
:100DF00008950F931F93CF93DF93082F11E0C0E066
:100E0000D0E090E0812F802309F091E0892F0E94AB
:100E1000C306110F2196C830D10599F7F89423988D
:100E20002B987894DF91CF911F910F910895EF92B5
:100E3000FF920F931F93CF93DF937C018B01C0E050
:100E4000D0E007C0F701EC0FFD1F80810E94F9067A
:100E50002196C017D107B0F3F89423982B98789473
:100E6000DF91CF911F910F91FF90EF9008950F9315
:100E70001F93CF93DF9301E010E0C0E0D0E00E9429
:100E8000DF068111102B000F2196C830D105B9F76C
:100E9000812FDF91CF911F910F910895EF92FF92D3
:100EA0000F931F93CF93DF937C018B01C0E0D0E0C1
:100EB00007C00E943707F701EC0FFD1F80832196C2
:100EC000C017D107B0F3DF91CF911F910F91FF9021
:100ED000EF9008950F931F93CF93DF938C0185E5D7
:100EE0000E94F906C0E0D0E0F801EC0FFD1F808100
:100EF0000E94F9062196C830D105B1F7DF91CF9154
:100F00001F910F9108958CEC0E94F9060895F894B2
:100F10002398789408951092AB011092AA01109230
:100F2000AC01E4EBF1E01082319781E0EC3AF80794
:100F3000D1F7089523982B980E948B0708958093EA
:100F4000AD01EEEAF1E0119281E0E53BF807D9F757
:100F500080E48093AB011092AC011092AA01089535
:100F6000BF92CF92DF92EF92FF920F931F93CF9396
:100F7000DF93EC018091AA01882309F061C00E94EF
:100F8000A106882341F41092AB011092AA0110929D
:100F9000AC0190E06BC080EF0E94F906B090AB010D
:100FA000D090AC01CC24EE24FF24F39401E00E9405
:100FB000DF06182F0E94DF06113019F48130A9F4E2
:100FC00033C01817D9F40B1540F4EE2DF0E0E355BB
:100FD000FE4F20812F2121F008C020E00B1529F0C1
:100FE000093008F054C0D02E52C0EE2DF0E0E35589
:100FF000FE4F80818F29808321E00AC0212FEE2DB2
:10100000F0E0E355FE4F9F2D9095808189238083EA
:10101000822F0E94C3060F5FFF0C19F4E394FF2494
:10102000F39487E08E1518F6D092AC01013440F0AD
:10103000C092AB01CC2029F581E08093AA0121C0A8
:101040001092AB011092AA011092AC0190E020E046
:1010500030E0FE01E20FF31FD901A355BE4F8C9182
:1010600080832F5F3F4F2830310599F7892FDF911B
:10107000CF911F910F91FF90EF90DF90CF90BF9095
:1010800008958091AD018823D9F291E0E0CFC02E80
:10109000B6CFDC0180E008C0ED91E827F0E0E85928
:1010A000FF4FE49161508E2F6623B1F70895CF92E0
:1010B000DF92EF92FF920F931F93CF93DF937C0108
:1010C0008B0160E070E021E0C22E20ECD22E2CC01B
:1010D000F701E60FF71FE081F0E0E427F527EF01C5
:1010E000D070252F3327EF70F070E658FE4FDE01E9
:1010F00084E0B695A7958A95E1F7A658BE4F9081F2
:101100008C91981711F02C253D25CE01F6E0880F23
:10111000991FFA95E1F7AC01440F551F482759274D
:10112000422753276F5F7F4F6017710788F2CA010C
:10113000DF91CF911F910F91FF90EF90DF90CF90B3
:101140000895CF93DF93EA01A9010E945708BC01DB
:10115000609570959B013070888190E02817390761
:1011600019F080E090E00CC040E0272F3327898100
:1011700090E02817390709F041E081E04827842FE3
:10118000DF91CF910895EF92FF920F931F93DF931A
:10119000CF93CDB7DEB729970FB6F894DEBF0FBE59
:1011A000CDBF8091B5019091B601A091B701B091EA
:1011B000B8010097A105B10591F40E94A1060E9413
:1011C000830784E40E94F9060E94AD016093B50193
:1011D0007093B6018093B7019093B8015CC00E94F0
:1011E000AD012091B5013091B6014091B701509108
:1011F000B801621B730B840B950B675073408040E2
:10120000904008F448C00E94A1060E9483078EEB1C
:101210000E94F9068E010F5F1F4F4AE0E42EF12C69
:10122000EC0EFD1E0E943707F80181938F01EE1529
:10123000FF05C1F7E0E0DE0111969E01275F3F4FF9
:1012400006C08D91E827F0E0E859FF4FE491A2171E
:10125000B307B9F77A8160E02981620F711D882791
:1012600077FD8095982F29E130E040E050E00E9422
:101270005C091092B5011092B6011092B70110925C
:10128000B80124E030E040E050E00E94C40930930F
:101290008B0120938A0180918A0190918B0129967C
:1012A0000FB6F894DEBF0FBECDBFCF91DF911F9177
:1012B0000F91FF90EF900895629FD001739FF0010E
:1012C000829FE00DF11D649FE00DF11D929FF00DD6
:1012D000839FF00D749FF00D659FF00D9927729F0D
:1012E000B00DE11DF91F639FB00DE11DF91FBD0198
:1012F000CF0111240895AA1BBB1B51E107C0AA1FEF
:10130000BB1FA617B70710F0A61BB70B881F991FA6
:101310005A95A9F780959095BC01CD01089597FB4A
:10132000092E07260AD077FD04D0E5DF06D000207D
:101330001AF4709561957F4F0895F6F79095819511
:101340009F4F0895A1E21A2EAA1BBB1BFD010DC0E1
:10135000AA1FBB1FEE1FFF1FA217B307E407F50765
:1013600020F0A21BB30BE40BF50B661F771F881F41
:10137000991F1A9469F760957095809590959B01D7
:10138000AC01BD01CF01089597FB092E05260ED0B3
:1013900057FD04D0D7DF0AD0001C38F45095409593
:1013A000309521953F4F4F4F5F4F0895F6F7909539
:1013B0008095709561957F4F8F4F9F4F0895FB01EA
:1013C0009F01E8944230C4F04532B4F44A3029F425
:1013D00097FB1EF4909581959F4F642F77270E946D
:1013E0007B09805D8A330CF0895D8193CB01009786
:1013F000A1F716F45DE251931082C9010C94320AF0
:10140000DC01CB01FC01F999FECF06C0F2BDE1BDC4
:10141000F89A319600B40D9241505040B8F70895B3
:10142000DC01A40FB51F4150504048F0CB01840FA0
:10143000951F2E910E94210A41505040D0F70895E7
:10144000262FF999FECF92BD81BDF89A019700B47D
:10145000021639F01FBA20BD0FB6F894FA9AF99A1D
:101460000FBE0895DC01FC01672F71917723E1F72E
:10147000329704C07C916D9370836291AE17BF0761
:08148000C8F30895F894FFCFB2
:10148800201008D714CD5D1E5BDB15DF5F9FDAC324
:10149800DCCB8BD39E82D400C20097D78F1F885B8A
:1014A800CAD60000005E00204F4E004F4646007925
:1014B800455300204E6F004F666600204F6E002097
:1014C8004E410050726400C00553454E00A30546C6
:1014D8007271008505205531006805205532004B92
:1014E80005205533002E05486F7400730472537439
:1014F800001A05534574003A040100010100010077
:0C15080000010100000100010100008052
:00000001FF
